:060000000A128A11FC2F18
:100F44000630831603139F00013085008601831247
:100F540003138601051CAC2F1A30F100F830F000A1
:100F6400F00BB22FF10BB22F000083120313051CF8
:100F7400AC2FF301F4017408803AFF0080307F0243
:100F8400031DC62F033073020318F72F83120313B4
:100F940006140230F2008630F1009930F000F00BB4
:100FA400D12FF10BD12FF20BD12F83120313061083
:100FB4000230F2008630F1009930F000F00BE02F9F
:100FC400F10BE02FF20BE02F0130F3070318F40AC2
:100FD4000030F4077408803AFF0080307F02031D5C
:100FE400F52F03307302031CC82F83120313051C4F
:0C0FF400AC2FF72F83010A128A11A22FE4
:02400E0071FF40
:00000001FF
