:060000000A128A11FA2F1A
:100B9E00F6007608831203138700861406150130BB
:100BAE00F0000030F1000A128A1119268312031385
:100BBE0006110800F60076088312031387008610CC
:100BCE0006150130F0000030F1000A128A111926C4
:100BDE0083120313061108001430F0000030F100E8
:100BEE000A128A1119260A128A1138300A128A112B
:100BFE00E1250A128A1108300A128A11E1250A1219
:100C0E008A1101300A128A11E1250A128A11063060
:100C1E000A128A11E1250A128A110E300A128A115D
:100C2E00E12508007108F301F3077008F201F207DD
:100C3E007308720403190800F401F5017508803A6F
:100C4E00FF008B307F02031D2E2EB8307402031866
:100C5E00412E0130F4070318F50A0030F507750828
:100C6E00803AFF008B307F02031D3F2EB830740296
:100C7E00031C302EFF30F2070318F30AFF30F30780
:100C8E001F2E8316031386018701FF3088008312FF
:100C9E000313860187010A128A11F3250A128A119B
:100CAE0001300A128A11E1250A128A110230F0006F
:100CBE000030F1000A128A1119260A128A118030A8
:100CCE000A128A11E1250A128A1148300A128A1173
:100CDE00CF250A128A114F300A128A11CF250A1215
:100CEE008A1157300A128A11CF250A128A118430BE
:100CFE000A128A11E1250A128A114D300A128A113E
:100D0E00CF250A128A1141300A128A11CF250A12F2
:100D1E008A114E300A128A11CF250A128A115930C1
:100D2E000A128A11CF250A128A1189300A128A11E3
:100D3E00E1250A128A1154300A128A11CF250A129D
:100D4E008A114F300A128A11CF250A128A118C305D
:100D5E000A128A11E1250A128A1150300A128A11DA
:100D6E00CF250A128A1152300A128A11CF250A1281
:100D7E008A1149300A128A11CF250A128A114E3071
:100D8E000A128A11CF250A128A1154300A128A11B8
:100D9E00CF250A128A113F300A128A11CF250A1264
:100DAE008A11C0300A128A11E1250A128A118312A1
:100DBE000313081EDE2E0530F0000030F1000A127B
:100DCE008A1119260A128A11C0300A128A11E125D7
:100DDE000A128A118312031308080F39031DFF2EFE
:100DEE0031300A128A11CF250A128A110130762F5C
:100DFE008312031308080F39013A031D0E2F3230E8
:100E0E000A128A11CF250A128A110230762F831206
:100E1E00031308080F39023A031D1D2F33300A122F
:100E2E008A11CF250A128A110330762F83120313EB
:100E3E0008080F39043A031D2C2F34300A128A1178
:100E4E00CF250A128A110430762F83120313080855
:100E5E000F39053A031D3B2F35300A128A11CF2563
:100E6E000A128A110530762F8312031308080F39E0
:100E7E00063A031D4A2F36300A128A11CF250A125E
:100E8E008A110630762F8312031308080F39083A99
:100E9E00031D592F37300A128A11CF250A128A11D3
:100EAE000730762F8312031308080F39093A031DF2
:100EBE00682F38300A128A11CF250A128A1108308B
:100ECE00762F8312031308080F390A3A031D7A2F5F
:100EDE0039300A128A11CF250A128A110930F70009
:100EEE000030F8008B2F8312031308080F390D3AC8
:100EFE00031D832F3030842F3F300A128A11CF25E5
:100F0E000A128A11F701F80194300A128A11E125AA
:100F1E000A128A1150300A128A11CF250A128A112A
:100F2E0052300A128A11CF250A128A1149300A123A
:100F3E008A11CF250A128A114E300A128A11CF2534
:100F4E000A128A1154300A128A11CF250A128A11F6
:100F5E0049300A128A11CF250A128A114E300A120E
:100F6E008A11CF250A128A1147300A128A11CF250B
:100F7E000A128A119D300A128A11E1250A128A116B
:100F8E0031300A128A11CF250A128A119F300A12A5
:100F9E008A11E1250A128A114F300A128A11CF25C1
:100FAE000A128A1146300A128A11CF250A128A11A4
:100FBE00A2300A128A11E1250A128A117708303EF0
:100FCE000A128A11CF250A128A1183120313081AE4
:100FDE00EC2F0530F0000030F1000A128A111926AC
:100FEE000A128A11572EF701F80183010A128A118B
:020FFE00482E7B
:02400E0071FF40
:00000001FF
