:060000000A128A11122809
:10000800FE00030EF2000408F3000A08F40083124D
:1000180003137F08F5000A128A1125280A128A118B
:100028001528A701A8010A128A11ED200A128A11BF
:10003800A9000A128A11EE20AA0083010A128A1165
:1000480089288B138B1C762808080F39F000F101DA
:100058007008F6007108F70049280130422802307C
:10006800422803304228043042280530422806300E
:10007800422807304228083042280930A7000030BB
:10008800A8007428A701A80174287708003A031962
:100098004E2874287608003A03193128013A0319C2
:1000A8003328033A03193528063A03193728013A41
:1000B80003193928033A03193B280E3A03193D2836
:1000C800013A03193F28033A03194128063A03194C
:1000D8004628013A03194628033A03194628742882
:1000E8008B107D280B1D7D280B110130A9000030D5
:1000F800AA008B177508FF0074088A00730884002B
:10010800720E8300FE0E7E0E09008B170B168B10E5
:1001180043308316031381000B178B160B11013024
:1001280086008701FF30880005308312031387009B
:1001380083120313A501A6012608803AFF00803028
:100148007F02031DA9280830250203189C28831262
:100158000313270887000130A7070318A80A0030EF
:10016800A807C330A0000030A1000A128A11CE20CF
:100178000A128A110A308312031327062804031D62
:10018800C728A701A8010130A5070318A60A00304F
:10019800A607A02883120313A301A4012408803A08
:1001A800A2002108803A2202031DDC28200823022D
:1001B80003180800831203132A0829040319D228F4
:1001C8000130A3070318A40A0030A407A901AA0153
:0601D800D22801340034BE
:02400E0071FF40
:00000001FF
