:060000000A128A11FC2F18
:100D3E00F600760883120313870006140611861434
:100D4E000530F0000030F1000A128A11EB268312F2
:100D5E00031386100800F60076088312031387002B
:100D6E000610061186140130F0000030F1000A1250
:100D7E008A11EB26831203138610080038300A12EC
:100D8E008A11B2260A128A110A30F0000030F100E0
:100D9E000A128A11EB260A128A110C300A128A11D3
:100DAE00B2260A128A1101300A128A11B2260A12CA
:100DBE008A1106300A128A11B2260A128A110F30CF
:100DCE000A128A11B22608007108F301F30770089F
:100DDE00F201F2077308720403190800F401F50119
:100DEE007508803AFF0083307F02031D002FE83024
:100DFE0074020318132F0130F4070318F50A00309C
:100E0E00F5077508803AFF0083307F02031D112F0E
:100E1E00E8307402031C022FFF30F2070318F30AA6
:100E2E00FF30F307F12EC0308316031381008601C5
:100E3E008701F1308800F901FA010A128A11C526DC
:100E4E000A128A1183120313081C292F0808F0397D
:100E5E00F7007708F8000130F9070318FA0A003096
:100E6E00FA078D2F31300A128A119F260A128A1123
:100E7E00B32F32300A128A119F260A128A11B32F0B
:100E8E0033300A128A119F260A128A11B32F343078
:100E9E000A128A119F260A128A11B32F35300A12AE
:100EAE008A119F260A128A11B32F36300A128A111E
:100EBE009F260A128A11B32F37300A128A119F26E3
:100ECE000A128A11B32F38300A128A119F260A127B
:100EDE008A11B32F39300A128A119F260A128A11EB
:100EEE00B32F30300A128A119F260A128A11B32F9D
:100EFE002A300A128A119F260A128A11B32F233022
:100F0E000A128A119F260A128A11B32F7808003A04
:100F1E000319392F103A0319402F303A0319472F6E
:100F2E00603A03194E2F103A0319552F303A031910
:100F3E005C2FE03A0319632F103A03196A2F303AE7
:100F4E000319712F603A03197F2F103A0319782F66
:100F5E00303A0319862FB32F143079067A04031D05
:100F6E00C72FC0300A128A11B2260A128A110A300D
:100F7E00F0000030F1000A128A11EB260A128A11D3
:100F8E00283079067A04031DDB2F94300A128A1159
:100F9E00B2260A128A110A30F0000030F1000A124D
:100FAE008A11EB260A128A113C3079067A04031D47
:100FBE00EF2FD4300A128A11B2260A128A110A3081
:100FCE00F0000030F1000A128A11EB260A128A1183
:100FDE00503079067A04031D292F0A128A11C5266C
:100FEE000A128A11F901FA01292F83010A128A11B4
:020FFE001A2FA8
:02400E0071FF40
:00000001FF
